{
  "contractName": "GreenHouseContract",
  "abi": [
    {
      "inputs": [],
      "stateMutability": "nonpayable",
      "type": "constructor"
    },
    {
      "anonymous": false,
      "inputs": [
        {
          "indexed": false,
          "internalType": "uint256",
          "name": "id",
          "type": "uint256"
        },
        {
          "indexed": false,
          "internalType": "string",
          "name": "name",
          "type": "string"
        },
        {
          "indexed": false,
          "internalType": "string",
          "name": "location",
          "type": "string"
        },
        {
          "indexed": false,
          "internalType": "string",
          "name": "cropType",
          "type": "string"
        },
        {
          "indexed": false,
          "internalType": "string",
          "name": "remarks",
          "type": "string"
        },
        {
          "indexed": false,
          "internalType": "string",
          "name": "dateOfSowing",
          "type": "string"
        },
        {
          "indexed": false,
          "internalType": "string",
          "name": "dateOfTransplant",
          "type": "string"
        },
        {
          "indexed": false,
          "internalType": "string",
          "name": "dateOfHarvest",
          "type": "string"
        },
        {
          "indexed": false,
          "internalType": "uint256",
          "name": "weight",
          "type": "uint256"
        },
        {
          "indexed": false,
          "internalType": "uint256",
          "name": "price",
          "type": "uint256"
        },
        {
          "indexed": false,
          "internalType": "address payable",
          "name": "owner",
          "type": "address"
        },
        {
          "indexed": false,
          "internalType": "enum GreenHouseContract.CropStatus",
          "name": "status",
          "type": "uint8"
        }
      ],
      "name": "CropCreated",
      "type": "event"
    },
    {
      "anonymous": false,
      "inputs": [
        {
          "indexed": false,
          "internalType": "uint256",
          "name": "id",
          "type": "uint256"
        },
        {
          "indexed": false,
          "internalType": "enum GreenHouseContract.CropStatus",
          "name": "status",
          "type": "uint8"
        }
      ],
      "name": "CropStatusUpdated",
      "type": "event"
    },
    {
      "anonymous": false,
      "inputs": [
        {
          "indexed": false,
          "internalType": "uint256",
          "name": "cropId",
          "type": "uint256"
        },
        {
          "indexed": false,
          "internalType": "string",
          "name": "system",
          "type": "string"
        },
        {
          "indexed": false,
          "internalType": "uint256",
          "name": "temperature",
          "type": "uint256"
        },
        {
          "indexed": false,
          "internalType": "uint256",
          "name": "humidity",
          "type": "uint256"
        },
        {
          "indexed": false,
          "internalType": "uint256",
          "name": "water",
          "type": "uint256"
        },
        {
          "indexed": false,
          "internalType": "uint256",
          "name": "nutrition",
          "type": "uint256"
        }
      ],
      "name": "SensorDataAdded",
      "type": "event"
    },
    {
      "inputs": [],
      "name": "companyName",
      "outputs": [
        {
          "internalType": "string",
          "name": "",
          "type": "string"
        }
      ],
      "stateMutability": "view",
      "type": "function",
      "constant": true
    },
    {
      "inputs": [
        {
          "internalType": "uint256",
          "name": "",
          "type": "uint256"
        }
      ],
      "name": "cropIds",
      "outputs": [
        {
          "internalType": "uint256",
          "name": "",
          "type": "uint256"
        }
      ],
      "stateMutability": "view",
      "type": "function",
      "constant": true
    },
    {
      "inputs": [
        {
          "internalType": "uint256",
          "name": "",
          "type": "uint256"
        }
      ],
      "name": "cropSensorData",
      "outputs": [
        {
          "internalType": "string",
          "name": "system",
          "type": "string"
        },
        {
          "internalType": "uint256",
          "name": "temperature",
          "type": "uint256"
        },
        {
          "internalType": "uint256",
          "name": "humidity",
          "type": "uint256"
        },
        {
          "internalType": "uint256",
          "name": "water",
          "type": "uint256"
        },
        {
          "internalType": "uint256",
          "name": "nutrition",
          "type": "uint256"
        }
      ],
      "stateMutability": "view",
      "type": "function",
      "constant": true
    },
    {
      "inputs": [],
      "name": "currentCropStatus",
      "outputs": [
        {
          "internalType": "enum GreenHouseContract.CropStatus",
          "name": "",
          "type": "uint8"
        }
      ],
      "stateMutability": "view",
      "type": "function",
      "constant": true
    },
    {
      "inputs": [
        {
          "internalType": "uint256",
          "name": "",
          "type": "uint256"
        }
      ],
      "name": "listOfCrops",
      "outputs": [
        {
          "internalType": "uint256",
          "name": "id",
          "type": "uint256"
        },
        {
          "internalType": "string",
          "name": "name",
          "type": "string"
        },
        {
          "internalType": "string",
          "name": "location",
          "type": "string"
        },
        {
          "internalType": "string",
          "name": "cropType",
          "type": "string"
        },
        {
          "internalType": "string",
          "name": "remarks",
          "type": "string"
        },
        {
          "internalType": "string",
          "name": "dateOfSowing",
          "type": "string"
        },
        {
          "internalType": "string",
          "name": "dateOfTransplant",
          "type": "string"
        },
        {
          "internalType": "string",
          "name": "dateOfHarvest",
          "type": "string"
        },
        {
          "internalType": "uint256",
          "name": "weight",
          "type": "uint256"
        },
        {
          "internalType": "uint256",
          "name": "price",
          "type": "uint256"
        },
        {
          "internalType": "address payable",
          "name": "owner",
          "type": "address"
        },
        {
          "internalType": "enum GreenHouseContract.CropStatus",
          "name": "status",
          "type": "uint8"
        }
      ],
      "stateMutability": "view",
      "type": "function",
      "constant": true
    },
    {
      "inputs": [],
      "name": "totalCrops",
      "outputs": [
        {
          "internalType": "uint256",
          "name": "",
          "type": "uint256"
        }
      ],
      "stateMutability": "view",
      "type": "function",
      "constant": true
    },
    {
      "inputs": [
        {
          "internalType": "string",
          "name": "_name",
          "type": "string"
        },
        {
          "internalType": "string",
          "name": "_location",
          "type": "string"
        },
        {
          "internalType": "string",
          "name": "_cropType",
          "type": "string"
        },
        {
          "internalType": "string",
          "name": "_remarks",
          "type": "string"
        },
        {
          "internalType": "string",
          "name": "_dateOfSowing",
          "type": "string"
        },
        {
          "internalType": "string",
          "name": "_dateOfTransplant",
          "type": "string"
        },
        {
          "internalType": "string",
          "name": "_dateOfHarvest",
          "type": "string"
        },
        {
          "internalType": "uint256",
          "name": "_weight",
          "type": "uint256"
        },
        {
          "internalType": "uint256",
          "name": "_price",
          "type": "uint256"
        }
      ],
      "name": "addCrop",
      "outputs": [],
      "stateMutability": "nonpayable",
      "type": "function"
    },
    {
      "inputs": [
        {
          "internalType": "uint256",
          "name": "_cropId",
          "type": "uint256"
        },
        {
          "internalType": "string",
          "name": "_system",
          "type": "string"
        },
        {
          "internalType": "uint256",
          "name": "_temperature",
          "type": "uint256"
        },
        {
          "internalType": "uint256",
          "name": "_humidity",
          "type": "uint256"
        },
        {
          "internalType": "uint256",
          "name": "_water",
          "type": "uint256"
        },
        {
          "internalType": "uint256",
          "name": "_nutrition",
          "type": "uint256"
        }
      ],
      "name": "addSensorData",
      "outputs": [],
      "stateMutability": "nonpayable",
      "type": "function"
    },
    {
      "inputs": [
        {
          "internalType": "uint256",
          "name": "_cropId",
          "type": "uint256"
        }
      ],
      "name": "sendToManufacturer",
      "outputs": [],
      "stateMutability": "nonpayable",
      "type": "function"
    },
    {
      "inputs": [
        {
          "internalType": "uint256",
          "name": "_cropId",
          "type": "uint256"
        }
      ],
      "name": "sendToSupplier",
      "outputs": [],
      "stateMutability": "nonpayable",
      "type": "function"
    },
    {
      "inputs": [
        {
          "internalType": "uint256",
          "name": "_cropId",
          "type": "uint256"
        }
      ],
      "name": "sendToSeller",
      "outputs": [],
      "stateMutability": "nonpayable",
      "type": "function"
    },
    {
      "inputs": [
        {
          "internalType": "uint256",
          "name": "_cropId",
          "type": "uint256"
        }
      ],
      "name": "markReadyForSale",
      "outputs": [],
      "stateMutability": "nonpayable",
      "type": "function"
    },
    {
      "inputs": [
        {
          "internalType": "uint256",
          "name": "_cropId",
          "type": "uint256"
        }
      ],
      "name": "markAsSold",
      "outputs": [],
      "stateMutability": "nonpayable",
      "type": "function"
    },
    {
      "inputs": [
        {
          "internalType": "uint256",
          "name": "_id",
          "type": "uint256"
        }
      ],
      "name": "getCropDetails",
      "outputs": [
        {
          "internalType": "uint256",
          "name": "",
          "type": "uint256"
        },
        {
          "internalType": "string",
          "name": "",
          "type": "string"
        },
        {
          "internalType": "string",
          "name": "",
          "type": "string"
        },
        {
          "internalType": "string",
          "name": "",
          "type": "string"
        },
        {
          "internalType": "string",
          "name": "",
          "type": "string"
        },
        {
          "internalType": "string",
          "name": "",
          "type": "string"
        },
        {
          "internalType": "string",
          "name": "",
          "type": "string"
        },
        {
          "internalType": "string",
          "name": "",
          "type": "string"
        },
        {
          "internalType": "uint256",
          "name": "",
          "type": "uint256"
        },
        {
          "internalType": "uint256",
          "name": "",
          "type": "uint256"
        },
        {
          "internalType": "address",
          "name": "",
          "type": "address"
        },
        {
          "internalType": "enum GreenHouseContract.CropStatus",
          "name": "",
          "type": "uint8"
        }
      ],
      "stateMutability": "view",
      "type": "function",
      "constant": true
    },
    {
      "inputs": [
        {
          "internalType": "uint256",
          "name": "_cropId",
          "type": "uint256"
        }
      ],
      "name": "getSensorData",
      "outputs": [
        {
          "internalType": "string",
          "name": "",
          "type": "string"
        },
        {
          "internalType": "uint256",
          "name": "",
          "type": "uint256"
        },
        {
          "internalType": "uint256",
          "name": "",
          "type": "uint256"
        },
        {
          "internalType": "uint256",
          "name": "",
          "type": "uint256"
        },
        {
          "internalType": "uint256",
          "name": "",
          "type": "uint256"
        }
      ],
      "stateMutability": "view",
      "type": "function",
      "constant": true
    },
    {
      "inputs": [],
      "name": "getAllCropIds",
      "outputs": [
        {
          "internalType": "uint256[]",
          "name": "",
          "type": "uint256[]"
        }
      ],
      "stateMutability": "view",
      "type": "function",
      "constant": true
    }
  ],
  "bytecode": "0x60806040523480156200001157600080fd5b50600060018190556002805460ff1916905560408051808201909152600481526347424d5360e01b60208201526200004a9082620000f6565b50620001c2565b634e487b7160e01b600052604160045260246000fd5b600181811c908216806200007c57607f821691505b6020821081036200009d57634e487b7160e01b600052602260045260246000fd5b50919050565b601f821115620000f157600081815260208120601f850160051c81016020861015620000cc5750805b601f850160051c820191505b81811015620000ed57828155600101620000d8565b5050505b505050565b81516001600160401b0381111562000112576200011262000051565b6200012a8162000123845462000067565b84620000a3565b602080601f831160018114620001625760008415620001495750858301515b600019600386901b1c1916600185901b178555620000ed565b600085815260208120601f198616915b82811015620001935788860151825594840194600190910190840162000172565b5085821015620001b25787850151600019600388901b60f8161c191681555b5050505050600190811b01905550565b611dbc80620001d26000396000f3fe608060405234801561001057600080fd5b50600436106101005760003560e01c80636213609111610097578063e596fdd811610066578063e596fdd814610228578063ed044aa31461023b578063f53a75031461024e578063f5ec2eed1461026357600080fd5b806362136091146101cb578063b1c4b2a2146101de578063cf96a0da14610202578063d2d9787b1461021557600080fd5b806339992e30116100d357806339992e30146101785780633e4133fe1461018b57806340f86fb61461019e57806343a7177b146101b857600080fd5b806304a9651d1461010557806320b6bac1146101395780632931a1081461014c5780632acc784714610161575b600080fd5b61011861011336600461172d565b610278565b6040516101309c9b9a999897969594939291906117c4565b60405180910390f35b61011861014736600461172d565b61069a565b61015f61015a36600461172d565b610bd4565b005b61016a60015481565b604051908152602001610130565b61015f61018636600461172d565b610cd0565b61015f61019936600461172d565b610dc4565b6002546101ab9060ff1681565b604051610130919061189c565b61015f6101c6366004611953565b610ebe565b61016a6101d936600461172d565b61101a565b6101f16101ec36600461172d565b61103b565b6040516101309594939291906119bd565b61015f61021036600461172d565b6110f1565b61015f6102233660046119f4565b6111e8565b61015f61023636600461172d565b611415565b6101f161024936600461172d565b611511565b610256611647565b6040516101309190611b23565b61026b61169f565b6040516101309190611b67565b6003602052600090815260409020805460018201805491929161029a90611b81565b80601f01602080910402602001604051908101604052809291908181526020018280546102c690611b81565b80156103135780601f106102e857610100808354040283529160200191610313565b820191906000526020600020905b8154815290600101906020018083116102f657829003601f168201915b50505050509080600201805461032890611b81565b80601f016020809104026020016040519081016040528092919081815260200182805461035490611b81565b80156103a15780601f10610376576101008083540402835291602001916103a1565b820191906000526020600020905b81548152906001019060200180831161038457829003601f168201915b5050505050908060030180546103b690611b81565b80601f01602080910402602001604051908101604052809291908181526020018280546103e290611b81565b801561042f5780601f106104045761010080835404028352916020019161042f565b820191906000526020600020905b81548152906001019060200180831161041257829003601f168201915b50505050509080600401805461044490611b81565b80601f016020809104026020016040519081016040528092919081815260200182805461047090611b81565b80156104bd5780601f10610492576101008083540402835291602001916104bd565b820191906000526020600020905b8154815290600101906020018083116104a057829003601f168201915b5050505050908060050180546104d290611b81565b80601f01602080910402602001604051908101604052809291908181526020018280546104fe90611b81565b801561054b5780601f106105205761010080835404028352916020019161054b565b820191906000526020600020905b81548152906001019060200180831161052e57829003601f168201915b50505050509080600601805461056090611b81565b80601f016020809104026020016040519081016040528092919081815260200182805461058c90611b81565b80156105d95780601f106105ae576101008083540402835291602001916105d9565b820191906000526020600020905b8154815290600101906020018083116105bc57829003601f168201915b5050505050908060070180546105ee90611b81565b80601f016020809104026020016040519081016040528092919081815260200182805461061a90611b81565b80156106675780601f1061063c57610100808354040283529160200191610667565b820191906000526020600020905b81548152906001019060200180831161064a57829003601f168201915b5050505060088301546009840154600a90940154929390929091506001600160a01b03811690600160a01b900460ff168c565b6000606080606080606080606060008060008060008d1180156106bf57506001548d11155b6106e45760405162461bcd60e51b81526004016106db90611bbb565b60405180910390fd5b6000600360008f8152602001908152602001600020604051806101800160405290816000820154815260200160018201805461071f90611b81565b80601f016020809104026020016040519081016040528092919081815260200182805461074b90611b81565b80156107985780601f1061076d57610100808354040283529160200191610798565b820191906000526020600020905b81548152906001019060200180831161077b57829003601f168201915b505050505081526020016002820180546107b190611b81565b80601f01602080910402602001604051908101604052809291908181526020018280546107dd90611b81565b801561082a5780601f106107ff5761010080835404028352916020019161082a565b820191906000526020600020905b81548152906001019060200180831161080d57829003601f168201915b5050505050815260200160038201805461084390611b81565b80601f016020809104026020016040519081016040528092919081815260200182805461086f90611b81565b80156108bc5780601f10610891576101008083540402835291602001916108bc565b820191906000526020600020905b81548152906001019060200180831161089f57829003601f168201915b505050505081526020016004820180546108d590611b81565b80601f016020809104026020016040519081016040528092919081815260200182805461090190611b81565b801561094e5780601f106109235761010080835404028352916020019161094e565b820191906000526020600020905b81548152906001019060200180831161093157829003601f168201915b5050505050815260200160058201805461096790611b81565b80601f016020809104026020016040519081016040528092919081815260200182805461099390611b81565b80156109e05780601f106109b5576101008083540402835291602001916109e0565b820191906000526020600020905b8154815290600101906020018083116109c357829003601f168201915b505050505081526020016006820180546109f990611b81565b80601f0160208091040260200160405190810160405280929190818152602001828054610a2590611b81565b8015610a725780601f10610a4757610100808354040283529160200191610a72565b820191906000526020600020905b815481529060010190602001808311610a5557829003601f168201915b50505050508152602001600782018054610a8b90611b81565b80601f0160208091040260200160405190810160405280929190818152602001828054610ab790611b81565b8015610b045780601f10610ad957610100808354040283529160200191610b04565b820191906000526020600020905b815481529060010190602001808311610ae757829003601f168201915b50505091835250506008820154602082015260098201546040820152600a8201546001600160a01b0381166060830152608090910190600160a01b900460ff166005811115610b5557610b5561178c565b6005811115610b6657610b6661178c565b815250509050806000015181602001518260400151836060015184608001518560a001518660c001518760e001518861010001518961012001518a61014001518b61016001519c509c509c509c509c509c509c509c509c509c509c509c505091939597999b5091939597999b565b600081118015610be657506001548111155b610c025760405162461bcd60e51b81526004016106db90611bbb565b60008181526003602052604090206004600a820154600160a01b900460ff166005811115610c3257610c3261178c565b14610c8e5760405162461bcd60e51b815260206004820152602660248201527f43726f70206d75737420626520526561647920466f722053616c6520746f206260448201526519481cdbdb1960d21b60648201526084016106db565b600a8101805460ff60a01b1916600560a01b179055604051600080516020611d6783398151915290610cc4908490600590611be4565b60405180910390a15050565b600081118015610ce257506001548111155b610cfe5760405162461bcd60e51b81526004016106db90611bbb565b60008181526003602052604090206002600a820154600160a01b900460ff166005811115610d2e57610d2e61178c565b14610d8e5760405162461bcd60e51b815260206004820152602a60248201527f43726f70206d75737420626520696e20537570706c69657220746f2073656e64604482015269103a379029b2b63632b960b11b60648201526084016106db565b600a8101805460ff60a01b1916600360a01b179055604051600080516020611d6783398151915290610cc4908490600390611be4565b600081118015610dd657506001548111155b610df25760405162461bcd60e51b81526004016106db90611bbb565b60008181526003602052604090206001600a820154600160a01b900460ff166005811115610e2257610e2261178c565b14610e885760405162461bcd60e51b815260206004820152603060248201527f43726f70206d75737420626520696e204d616e75666163747572657220746f2060448201526f39b2b732103a379029bab8383634b2b960811b60648201526084016106db565b600a8101805460ff60a01b1916600160a11b179055604051600080516020611d6783398151915290610cc4908490600290611be4565b600086118015610ed057506001548611155b610eec5760405162461bcd60e51b81526004016106db90611bbb565b6000868152600360205260409020600a01546001600160a01b03163314610f605760405162461bcd60e51b815260206004820152602260248201527f4f6e6c7920746865206f776e65722063616e206164642073656e736f72206461604482015261746160f01b60648201526084016106db565b6040805160a08101825286815260208082018790528183018690526060820185905260808201849052600089815260059091529190912081518190610fa59082611c47565b50602082015181600101556040820151816002015560608201518160030155608082015181600401559050507f01343bed2a41bd834a5e5077ed96f157539f23107c25c5bad19822d706aba9c886868686868660405161100a96959493929190611d07565b60405180910390a1505050505050565b6004818154811061102a57600080fd5b600091825260209091200154905081565b60056020526000908152604090208054819061105690611b81565b80601f016020809104026020016040519081016040528092919081815260200182805461108290611b81565b80156110cf5780601f106110a4576101008083540402835291602001916110cf565b820191906000526020600020905b8154815290600101906020018083116110b257829003601f168201915b5050505050908060010154908060020154908060030154908060040154905085565b60008111801561110357506001548111155b61111f5760405162461bcd60e51b81526004016106db90611bbb565b600081815260036020526040812090600a820154600160a01b900460ff16600581111561114e5761114e61178c565b146111b25760405162461bcd60e51b815260206004820152602e60248201527f43726f70206d75737420626520617661696c61626c6520746f2073656e64207460448201526d379036b0b73ab330b1ba3ab932b960911b60648201526084016106db565b600a8101805460ff60a01b1916600160a01b179055604051600080516020611d6783398151915290610cc4908490600190611be4565b60018060008282546111fa9190611d45565b9250508190555060405180610180016040528060015481526020018a8152602001898152602001888152602001878152602001868152602001858152602001848152602001838152602001828152602001336001600160a01b031681526020016000600581111561126d5761126d61178c565b90526001805460009081526003602090815260409091208351815590830151909182019061129b9082611c47565b50604082015160028201906112b09082611c47565b50606082015160038201906112c59082611c47565b50608082015160048201906112da9082611c47565b5060a082015160058201906112ef9082611c47565b5060c082015160068201906113049082611c47565b5060e082015160078201906113199082611c47565b5061010082015160088201556101208201516009820155610140820151600a820180546001600160a01b039092166001600160a01b0319831681178255610160850151926001600160a81b03191617600160a01b83600581111561137f5761137f61178c565b0217905550506001805460048054928301815560009081527f8a35acfbc15ff81a39ae7d344fd709f28e8600b4aa8c65c6b64bfe7fe36bd19b9092018190556040517f1fe5624d49f70c17fc08496f6ead2ec4eaab47146a0e4c11bd4efdfca917a3119350611402928d918d918d918d918d918d918d918d918d913391906117c4565b60405180910390a1505050505050505050565b60008111801561142757506001548111155b6114435760405162461bcd60e51b81526004016106db90611bbb565b600081815260036020819052604090912090600a820154600160a01b900460ff1660058111156114755761147561178c565b146114db5760405162461bcd60e51b815260206004820152603060248201527f43726f70206d75737420626520696e2053656c6c657220746f206d61726b206160448201526f7320726561647920666f722073616c6560801b60648201526084016106db565b600a8101805460ff60a01b1916600160a21b179055604051600080516020611d6783398151915290610cc4908490600490611be4565b606060008060008060008611801561152b57506001548611155b6115475760405162461bcd60e51b81526004016106db90611bbb565b600086815260056020526040808220815160a0810190925280548290829061156e90611b81565b80601f016020809104026020016040519081016040528092919081815260200182805461159a90611b81565b80156115e75780601f106115bc576101008083540402835291602001916115e7565b820191906000526020600020905b8154815290600101906020018083116115ca57829003601f168201915b50505050508152602001600182015481526020016002820154815260200160038201548152602001600482015481525050905080600001518160200151826040015183606001518460800151955095509550955095505091939590929450565b6060600480548060200260200160405190810160405280929190818152602001828054801561169557602002820191906000526020600020905b815481526020019060010190808311611681575b5050505050905090565b600080546116ac90611b81565b80601f01602080910402602001604051908101604052809291908181526020018280546116d890611b81565b80156117255780601f106116fa57610100808354040283529160200191611725565b820191906000526020600020905b81548152906001019060200180831161170857829003601f168201915b505050505081565b60006020828403121561173f57600080fd5b5035919050565b6000815180845260005b8181101561176c57602081850181015186830182015201611750565b506000602082860101526020601f19601f83011685010191505092915050565b634e487b7160e01b600052602160045260246000fd5b600681106117c057634e487b7160e01b600052602160045260246000fd5b9052565b60006101808e83528060208401526117de8184018f611746565b905082810360408401526117f2818e611746565b90508281036060840152611806818d611746565b9050828103608084015261181a818c611746565b905082810360a084015261182e818b611746565b905082810360c0840152611842818a611746565b905082810360e08401526118568189611746565b915050856101008301528461012083015261187d6101408301856001600160a01b03169052565b61188b6101608301846117a2565b9d9c50505050505050505050505050565b602081016118aa82846117a2565b92915050565b634e487b7160e01b600052604160045260246000fd5b600082601f8301126118d757600080fd5b813567ffffffffffffffff808211156118f2576118f26118b0565b604051601f8301601f19908116603f0116810190828211818310171561191a5761191a6118b0565b8160405283815286602085880101111561193357600080fd5b836020870160208301376000602085830101528094505050505092915050565b60008060008060008060c0878903121561196c57600080fd5b86359550602087013567ffffffffffffffff81111561198a57600080fd5b61199689828a016118c6565b96999698505050506040850135946060810135946080820135945060a09091013592509050565b60a0815260006119d060a0830188611746565b90508560208301528460408301528360608301528260808301529695505050505050565b60008060008060008060008060006101208a8c031215611a1357600080fd5b893567ffffffffffffffff80821115611a2b57600080fd5b611a378d838e016118c6565b9a5060208c0135915080821115611a4d57600080fd5b611a598d838e016118c6565b995060408c0135915080821115611a6f57600080fd5b611a7b8d838e016118c6565b985060608c0135915080821115611a9157600080fd5b611a9d8d838e016118c6565b975060808c0135915080821115611ab357600080fd5b611abf8d838e016118c6565b965060a08c0135915080821115611ad557600080fd5b611ae18d838e016118c6565b955060c08c0135915080821115611af757600080fd5b50611b048c828d016118c6565b93505060e08a013591506101008a013590509295985092959850929598565b6020808252825182820181905260009190848201906040850190845b81811015611b5b57835183529284019291840191600101611b3f565b50909695505050505050565b602081526000611b7a6020830184611746565b9392505050565b600181811c90821680611b9557607f821691505b602082108103611bb557634e487b7160e01b600052602260045260246000fd5b50919050565b6020808252600f908201526e125b9d985b1a590818dc9bdc081251608a1b604082015260600190565b82815260408101611b7a60208301846117a2565b601f821115611c4257600081815260208120601f850160051c81016020861015611c1f5750805b601f850160051c820191505b81811015611c3e57828155600101611c2b565b5050505b505050565b815167ffffffffffffffff811115611c6157611c616118b0565b611c7581611c6f8454611b81565b84611bf8565b602080601f831160018114611caa5760008415611c925750858301515b600019600386901b1c1916600185901b178555611c3e565b600085815260208120601f198616915b82811015611cd957888601518255948401946001909101908401611cba565b5085821015611cf75787850151600019600388901b60f8161c191681555b5050505050600190811b01905550565b86815260c060208201526000611d2060c0830188611746565b90508560408301528460608301528360808301528260a0830152979650505050505050565b808201808211156118aa57634e487b7160e01b600052601160045260246000fdfeff29a64bcf825f0a51339b3438983905b2c6c43211c7703eceed5ab88504627aa2646970667358221220526f7d43b9cfa7d3cd5189380069a653d40bcebd4ad06ed42fe0d3d39a8b4eaa64736f6c63430008120033",
  "immutableReferences": {},
  "source": "// SPDX-License-Identifier: MIT\r\npragma solidity ^0.8.1;\r\n\r\ncontract GreenHouseContract {\r\n    enum CropStatus {Available, InManufacturer, InSupplier, InSeller, ReadyForSale, Sold}\r\n\r\n    string public companyName;\r\n    uint public totalCrops; \r\n    CropStatus public currentCropStatus;\r\n\r\n    constructor() {\r\n        totalCrops = 0;\r\n        currentCropStatus = CropStatus.Available;\r\n        companyName = \"GBMS\";\r\n    }\r\n\r\n    event CropCreated(\r\n        uint id,\r\n        string name,\r\n        string location,\r\n        string cropType,\r\n        string remarks,\r\n        string dateOfSowing,\r\n        string dateOfTransplant,\r\n        string dateOfHarvest,\r\n        uint weight,\r\n        uint price,\r\n        address payable owner,\r\n        CropStatus status\r\n    );\r\n\r\n    event SensorDataAdded(\r\n        uint cropId,\r\n        string system,\r\n        uint temperature,\r\n        uint humidity,\r\n        uint water,\r\n        uint nutrition\r\n    );\r\n\r\n    event CropStatusUpdated(\r\n        uint id,\r\n        CropStatus status\r\n    );\r\n\r\n    struct CropDetails {\r\n        uint id;\r\n        string name;\r\n        string location;\r\n        string cropType;\r\n        string remarks;\r\n        string dateOfSowing;\r\n        string dateOfTransplant;\r\n        string dateOfHarvest;\r\n        uint weight;\r\n        uint price;\r\n        address payable owner;\r\n        CropStatus status;\r\n    }\r\n\r\n    struct SensorData {\r\n        string system;\r\n        uint temperature;\r\n        uint humidity;\r\n        uint water;\r\n        uint nutrition;\r\n    }\r\n\r\n    mapping(uint => CropDetails) public listOfCrops;\r\n    uint[] public cropIds;  \r\n\r\n    // Mapping to link sensor data to a specific crop\r\n    mapping(uint => SensorData) public cropSensorData;\r\n\r\n    function addCrop(\r\n        string memory _name,\r\n        string memory _location,\r\n        string memory _cropType,\r\n        string memory _remarks,\r\n        string memory _dateOfSowing,\r\n        string memory _dateOfTransplant,\r\n        string memory _dateOfHarvest,\r\n        uint _weight,\r\n        uint _price\r\n    ) public {\r\n        totalCrops += 1; \r\n        listOfCrops[totalCrops] = CropDetails(\r\n            totalCrops,\r\n            _name,\r\n            _location,\r\n            _cropType,\r\n            _remarks,\r\n            _dateOfSowing,\r\n            _dateOfTransplant,\r\n            _dateOfHarvest,\r\n            _weight,\r\n            _price,\r\n            payable(msg.sender),\r\n            CropStatus.Available\r\n        );\r\n        cropIds.push(totalCrops);\r\n\r\n        emit CropCreated(\r\n            totalCrops,\r\n            _name,\r\n            _location,\r\n            _cropType,\r\n            _remarks,\r\n            _dateOfSowing,\r\n            _dateOfTransplant,\r\n            _dateOfHarvest,\r\n            _weight,\r\n            _price,\r\n            payable(msg.sender),\r\n            CropStatus.Available\r\n        );\r\n    }\r\n\r\n    // Function to add sensor data to a crop\r\n    function addSensorData(\r\n        uint _cropId,\r\n        string memory _system,\r\n        uint _temperature,\r\n        uint _humidity,\r\n        uint _water,\r\n        uint _nutrition\r\n    ) public {\r\n        require(_cropId > 0 && _cropId <= totalCrops, \"Invalid crop ID\"); // Ensure the ID is valid\r\n        require(listOfCrops[_cropId].owner == msg.sender, \"Only the owner can add sensor data\");\r\n\r\n        cropSensorData[_cropId] = SensorData(\r\n            _system,\r\n            _temperature,\r\n            _humidity,\r\n            _water,\r\n            _nutrition\r\n        );\r\n\r\n        emit SensorDataAdded(_cropId, _system, _temperature, _humidity, _water, _nutrition);\r\n    }\r\n\r\n    function sendToManufacturer(uint _cropId) public {\r\n        require(_cropId > 0 && _cropId <= totalCrops, \"Invalid crop ID\");\r\n        CropDetails storage crop = listOfCrops[_cropId];\r\n        require(crop.status == CropStatus.Available, \"Crop must be available to send to manufacturer\");\r\n\r\n        crop.status = CropStatus.InManufacturer;\r\n        emit CropStatusUpdated(_cropId, CropStatus.InManufacturer);\r\n    }\r\n\r\n    function sendToSupplier(uint _cropId) public {\r\n        require(_cropId > 0 && _cropId <= totalCrops, \"Invalid crop ID\");\r\n        CropDetails storage crop = listOfCrops[_cropId];\r\n        require(crop.status == CropStatus.InManufacturer, \"Crop must be in Manufacturer to send to Supplier\");\r\n\r\n        crop.status = CropStatus.InSupplier;\r\n        emit CropStatusUpdated(_cropId, CropStatus.InSupplier);\r\n    }\r\n\r\n    function sendToSeller(uint _cropId) public {\r\n        require(_cropId > 0 && _cropId <= totalCrops, \"Invalid crop ID\");\r\n        CropDetails storage crop = listOfCrops[_cropId];\r\n        require(crop.status == CropStatus.InSupplier, \"Crop must be in Supplier to send to Seller\");\r\n\r\n        crop.status = CropStatus.InSeller;\r\n        emit CropStatusUpdated(_cropId, CropStatus.InSeller);\r\n    }\r\n\r\n    function markReadyForSale(uint _cropId) public {\r\n        require(_cropId > 0 && _cropId <= totalCrops, \"Invalid crop ID\");\r\n        CropDetails storage crop = listOfCrops[_cropId];\r\n        require(crop.status == CropStatus.InSeller, \"Crop must be in Seller to mark as ready for sale\");\r\n\r\n        crop.status = CropStatus.ReadyForSale;\r\n        emit CropStatusUpdated(_cropId, CropStatus.ReadyForSale);\r\n    }\r\n\r\n    function markAsSold(uint _cropId) public {\r\n        require(_cropId > 0 && _cropId <= totalCrops, \"Invalid crop ID\");\r\n        CropDetails storage crop = listOfCrops[_cropId];\r\n        require(crop.status == CropStatus.ReadyForSale, \"Crop must be Ready For Sale to be sold\");\r\n\r\n        crop.status = CropStatus.Sold;\r\n        emit CropStatusUpdated(_cropId, CropStatus.Sold);\r\n    }\r\n\r\n    function getCropDetails(uint _id) public view returns (\r\n        uint,\r\n        string memory,\r\n        string memory,\r\n        string memory,\r\n        string memory,\r\n        string memory,\r\n        string memory,\r\n        string memory,\r\n        uint,\r\n        uint,\r\n        address,\r\n        CropStatus\r\n    ) {\r\n        require(_id > 0 && _id <= totalCrops, \"Invalid crop ID\");\r\n        CropDetails memory crop = listOfCrops[_id];\r\n        return (\r\n            crop.id,\r\n            crop.name,\r\n            crop.location,\r\n            crop.cropType,\r\n            crop.remarks,\r\n            crop.dateOfSowing,\r\n            crop.dateOfTransplant,\r\n            crop.dateOfHarvest,\r\n            crop.weight,\r\n            crop.price,\r\n            crop.owner,\r\n            crop.status\r\n        );\r\n    }\r\n\r\n    function getSensorData(uint _cropId) public view returns (\r\n        string memory,\r\n        uint,\r\n        uint,\r\n        uint,\r\n        uint\r\n    ) {\r\n        require(_cropId > 0 && _cropId <= totalCrops, \"Invalid crop ID\");\r\n        SensorData memory sensor = cropSensorData[_cropId];\r\n        return (\r\n            sensor.system,\r\n            sensor.temperature,\r\n            sensor.humidity,\r\n            sensor.water,\r\n            sensor.nutrition\r\n        );\r\n    }\r\n\r\n    function getAllCropIds() public view returns (uint[] memory) {\r\n        return cropIds;\r\n    }\r\n}\r\n",
  "sourcePath": "C:\\Users\\21045117\\Desktop\\FYP\\greenhouse-frontend\\contracts\\GreenHouseContract.sol",
  "compiler": {
    "name": "solc",
    "version": "0.8.18+commit.87f61d96.Emscripten.clang"
  },
  "schemaVersion": "3.4.7",
  "updatedAt": "2024-11-21T08:54:53.365Z",
  "networkType": "ethereum",
  "devdoc": {
    "kind": "dev",
    "methods": {},
    "version": 1
  },
  "userdoc": {
    "kind": "user",
    "methods": {},
    "version": 1
  }
}